:020000040800F2
:1000000000A00020B1120008F9120008F91200083F
:10001000F9120008F9120008F912000800000000A7
:10002000000000000000000000000000F9120008BD
:10003000F912000800000000F9120008F912000887
:1000400000000000000000000000000000000000B0
:1000500000000000000000000000000000000000A0
:100060000000000000000000000000000000000090
:100070000000000000000000000000000000000080
:100080000000000000000000000000000000000070
:100090000000000000000000000000000000000060
:1000A0000000000000000000000000000000000050
:1000B0000000000000000000000000000000000040
:1000C0000000000000000000000000000000000030
:1000D0000000000000000000000000000000000020
:1000E0000000000000000000000000000000000010
:1000F0000000000000000000000000000000000000
:1001000000000000000000000000000000000000EF
:1001100000000000000000000000000000000000DF
:1001200000000000000000000000000000000000CF
:1001300000000000000000000000000000000000BF
:1001400000000000000000000000000000000000AF
:10015000000000000000000000000000000000009F
:10016000000000000000000000000000000000008F
:10017000000000000000000000000000000000007F
:08018000000000000000000077
:100188000348044B834202D0034B03B1184770471E
:100198000000002000000020000000000548064B79
:1001A8001B1AD90F01EBA301491002D0034B03B16D
:1001B80018477047000000200000002000000000E1
:1001C80010B5064C237843B9FFF7DAFF044B13B197
:1001D8000448AFF300800123237010BD8401002080
:1001E800000000004413000808B5054B1BB1054981
:1001F8000548AFF30080BDE80840FFF7CFBF00BF58
:1002080000000000880100204413000807B50329F6
:1002180082BF074B02681A600121AA230DF1070269
:1002280072208DF8073000F007F9002003B000BDF8
:100238000000002007B5032982BF074B02685A60F7
:100248000121BB230DF1070272208DF8073000F061
:10025800F3F8002003B000BD0000002073B5D1B151
:100268000578124C00F044FA002223681048114621
:10027800D6B2B54211D801B1236000F040FA236824
:100288008DF807300DF107020121722000F0D4F833
:10029800002002B070BD0125E3E743F300010140EF
:1002A80081EA530301320121E2E700BF0000002088
:1002B800000200E037B5C9B10578124C00F018FA11
:1002C800002263681146D0B2854211D801B163603B
:1002D80000F015FA63688DF807300DF10702012167
:1002E800722000F0A9F8002003B030BD0125E4E732
:1002F800054943F30000014081EA5303013201211B
:10030800E1E700BF000000202083B8ED08B500F049
:100318004FF900F08BF900F0C7F900F077F80B4AB5
:100328000421612000F06EF8094A0421622000F0DF
:1003380069F8084A0121632000F064F8064A01219F
:10034800642000F05FF800F0D1F8FCE7150200081F
:100358003D02000865020008BD0200080120704740
:10036800F0B500254F1C854201DB002021E017F87D
:10037800154011F81530A4F13006F6B2092E0CD844
:100388001670A3F13004E4B2092C15D8137843EAA7
:100398000413137001350132E5E7A4F14106052E77
:1003A80002D8373C1470ECE7A4F16106052E01D998
:1003B8000120F0BD573CF5E7A3F14104052C02D814
:1003C800A3F13704E2E7A3F16104052CF0D814780F
:1003D800573B44EA0313DCE770B5094E34680F2C29
:1003E8000BDCFF2909D806EB0415C5E90212013414
:1003F80028712B743460002070BD0120FCE700BF19
:10040800080000200023FFF7E7BF000008B5074AEF
:1004180000217620FFF7F6FF054A7720FFF7F2FF65
:10042800BDE80840034A7920FFF7ECBF65030008E0
:10043800A904000889040008F8B50E46541EC2F144
:10044800010500F07BF90D4F2B199E4204DCBDE835
:10045800F8400A2000F072B914F8013F07EB1313B3
:1004680093F8000100F06AF9237803F00F033B4486
:1004780093F8000100F062F9E6E700BF5C1300089A
:1004880007B5064B0DF107021B688DF807300121EF
:100498007220FFF7D1FF002003B000BD0800002044
:1004A80070B5114C21688CB0CDB20020C3B2AB42FC
:1004B80009DB01EB41016A46C9B27220FFF7BCFFB4
:1004C80000200CB070BD03EB4302303204EB031381
:1004D8006A441E7902F8306C9E681B7C02F82F6C07
:1004E800013002F82E3CE1E7080000202DE9F04336
:1004F8002E4CADF5437D00F009F92246002352F851
:10050800041B994241DC3CD004EB03154FEA031865
:100518002B7CDB0714D500238DF8083000F0F6F8A3
:100528008DF8080100F0F2F802AF8DF809013A469B
:1005380042A90120FFF714FF18BB9DF80830AB60F3
:1005480042AF002504EB0809D9F80830B5EB430F92
:1005580021D300F0DBF80A2801D00D2811D144443A
:1005680002AAA56842A92846FFF7FAFE48B9E9B2E7
:10057800E36802A8984701AA012110707A20FFF7C2
:100588005BFF0DF5437DBDE8F0831D01AD5C854241
:10059800BAD00133B5E700F0B9F80A28F1D00D2830
:1005A800EFD007F8010B0135CEE700BF08000020A7
:1005B80070B596B0002403264FF4A0230CA801259B
:1005C800CDE90C631094149400F0D0F80F23214661
:1005D80002A8CDE90235CDE90444069400F00CFBED
:1005E800104B11485A6942F400225A615B6903F4BE
:1005F80000230193019B07A94FF4C043CDE90735B8
:10060800CDE9094600F098FB2A4607484FF4005107
:1006180000F04CFC04482A464FF4804100F046FCA8
:1006280016B070BD001002400008004810B54FF425
:10063800C06288B00223CDE9032301210323CDE959
:100648000513164C07230793636943F4003363616A
:10065800636903F40033019303A94FF09040019BB1
:1006680000F06AFB0E4A0F4B13604FF4164000234C
:10067800C2E90103C2E9033393610C235361A369FF
:1006880043F48043A361A36903F4804302931046B3
:10069800029B00F01EFD08B010BD00BF0010024014
:1006A8000C0100200038014030B5104B5A6942F463
:1006B800003287B05A615B6903F400330093009BF2
:1006C8004FF480540123CDE901430025032301A9F8
:1006D8004FF09040CDE9035300F02EFB2A46214607
:1006E8004FF0904000F0E2FB07B030BD0010024030
:1006F80001224FF480514FF0904000F0D7BB002208
:100708004FF480514FF0904000F0D0BB13B5094C26
:10071800094841F2883301220DF1070100F058FD24
:1007280018B99DF8070002B010BD236A43F008030A
:100738002362EDE7003801400C01002007B541F2C3
:1007480088338DF8070001220DF10701024800F0F7
:10075800EAFC03B000BD00BF0C010020024B186882
:10076800421C1A60704700BF7C01002003682DE915
:10077800F743D907044610D423689A077ED4236820
:100788001E0700F1E78023685D0700F12A81E2690E
:10079800002A40F0AD8100201FE0AE494B6803F00D
:1007A8000C03042B07D04B6803F00C03082B17D15C
:1007B8004B68DB0314D54FF4003393FAA3F20968AE
:1007C80093FAA3F30122B3FA83F302FA03F30B4279
:1007D800D2D06368002BCFD1012003B0BDE8F083ED
:1007E8006268B2F5803F22D10B6843F480330B6016
:1007F800CB6AA06823F00F030343CB623AB3FFF739
:10080800ADFF4FF400350646012795FAA5F30A68AF
:1008180095FAA5F3B3FA83F307FA03F31342ABD1BE
:10082800FFF79CFF801B6428EFD90320D5E70B68EE
:1008380032B923F480330B600B6823F48023D6E7A6
:10084800B2F5A02FF5D143F480230B60CCE7FFF776
:1008580085FF4FF400350646012795FAA5F30A6887
:1008680095FAA5F3B3FA83F307FA03F3134283D097
:10087800FFF774FF801B6428EFD9D6E775494B68EA
:1008880013F00C0F07D04B6803F00C03082B1FD193
:100898004B68DF031CD4022393FAA3F2086893FA87
:1008A800A3F30122B3FA83F302FA03F3034202D05B
:1008B8002369934290D10868F82292FAA2F26369F8
:1008C800B2FA82F2934020F0F80213430B6056E725
:1008D80022690125F2B195FAA5F3B3FA83F303F17E
:1008E800845303F584139B0002271D60FFF736FF2E
:1008F800064697FAA7F30A6897FAA7F3B3FA83F3B9
:1009080005FA03F31342D6D1FFF728FF801B02280C
:10091800EFD98AE795FAA5F3B3FA83F303F1845381
:1009280003F584139B0002271A60FFF717FF06469A
:1009380097FAA7F30A6897FAA7F3B3FA83F305FAC5
:1009480003F313423FF41BAFFFF708FF801B022895
:10095800EED96AE7A0693F4D3F4A012100B391FAF9
:10096800A1F3B3FA83F313449B0002261960FFF73F
:10097800F5FE074696FAA6F396FAA6F396FAA6F3B4
:100988006A6A96FAA6F3B3FA83F301FA03F31342F9
:100998007FF4F9AEFFF7E2FEC01B0228EAD944E76C
:1009A80091FAA1F3B3FA83F313449B00022618606B
:1009B800FFF7D4FE074696FAA6F396FAA6F396FA38
:1009C800A6F36A6A96FAA6F3B3FA83F301FA03F375
:1009D80013423FF4D8AEFFF7C1FEC01B0228EAD984
:1009E80023E71C49CB69D80031D4CB6943F0805345
:1009F800CB61CB6903F080530193019B0125174E0E
:100A08003368DA052CD5E368012B39D10B6A43F03A
:100A180001030B62FFF7A2FE022607464FF001080A
:100A280041F2883996FAA6F396FAA6F30A6A96FA74
:100A3800A6F3B3FA83F308FA03F3134252D0002D56
:100A48003FF4A5AECB6923F08053CB619FE6002528
:100A5800D5E700BF001002402081901000700040D0
:100A6800336843F480733360FFF778FE07463368D2
:100A7800DB05C8D4FFF772FEC01B6428F7D9D4E69B
:100A880013BB0B6A23F001030B620B6A23F0040308
:100A98000B62FFF763FE022607464FF0010841F29A
:100AA800883996FAA6F396FAA6F30A6A96FAA6F38E
:100AB800B3FA83F308FA03F31342C0D0FFF74EFEEC
:100AC800C01B4845EDD9B0E6052B0B6A03D143F0AE
:100AD80004030B629AE723F001030B620B6A23F00D
:100AE800040396E7FFF73AFEC01B48459AD99CE6EF
:100AF8003F494B6803F00C03082B3FF46DAE022A04
:100B08004FF0807350D193FAA3F3B3FA83F303F150
:100B1800845303F584139B0000221A60FFF71EFE1E
:100B2800DFF8D08006464FF00077012597FAA7F343
:100B38000A6897FAA7F3B3FA83F305FA03F31342A3
:100B48002CD1D4E908034A68034322F474121343EE
:100B58004B604FF0807393FAA3F3B3FA83F303F176
:100B6800845303F584139B00224F1D60FFF7F6FDA5
:100B78004FF000740546012694FAA4F30A6894FA23
:100B8800A4F3B3FA83F306FA03F313427FF403AE34
:100B9800FFF7E4FD401BB842EED946E6FFF7DEFD5D
:100BA800801B4045C2D940E693FAA3F3B3FA83F316
:100BB80003F1845303F584139B0000221A60FFF7A6
:100BC800CDFD0C4F05464FF00074012694FAA4F3AE
:100BD8000A6894FAA4F3B3FA83F306FA03F3134208
:100BE8003FF4D9ADFFF7BAFD401BB842EED91CE679
:100BF80000100240400D03004D4AF8B5136803F099
:100C080007038B42054611D32A6894071AD4D007E4
:100C180020D4474A136803F007038B426CD82A682C
:100C2800510774D413077AD400200AE0136823F01C
:100C380007030B431360136803F007038B42E3D0E9
:100C48000120F8BD3B48AC68436823F0F003234318
:100C58004360DCE76A68374C012A25D14FF400333A
:100C680093FAA3F0206893FAA3F3B3FA83F302FA92
:100C780003F30342E4D0636823F003031343636080
:100C8800FFF76CFD6B68012B064641F288371CD1D3
:100C9800636803F00C03042BBBD0FFF75FFD801BD8
:100CA800B842F5D90320CCE7022A0CBF4FF00073F5
:100CB800022393FAA3F0266893FAA3F30120B3FA68
:100CC80083F300FA03F33342D4E7022B0FD16368AE
:100CD80003F00C03082B9CD0FFF740FD801BB842A3
:100CE800F5D9DFE7FFF73AFD801BB842DAD8636829
:100CF80013F00C0FF6D18CE7136823F007030B43AE
:100D08001360136803F007038B4299D187E70949F9
:100D1800E8684B6823F4E06303434B6082E7054AC5
:100D28002969536823F4605343EAC10353607BE79E
:100D380000200240001002402DE9F74FDFF86081E3
:100D4800584C00224FF00F090B6833FA02F502D114
:100D580003B0BDE8F08F012505FA02FA1AEA030389
:100D680000F094804D6825F0100EBEF1020F11D1ED
:100D7800D70800EB870702F0070C3E6A4FEA8C0C95
:100D880009FA0CFB26EA0B0B0E6906FA0CF646EA82
:100D98000B063E6207684FEA420C032606FA0CF679
:100DA80027EA060B05F0030707FA0CF70EF1FF3EDA
:100DB80047EA0B07BEF1010F076010D8876827EADA
:100DC800060ECF6807FA0CF747EA0E0787604768F0
:100DD80027EA0A0E2F09974047EA0E074760C768B7
:100DE80027EA06078E6806FA0CF63E43C660EE0050
:100DF8004CD5D8F8186046F00106C8F81860D8F83D
:100E0800186022F0030707F1804706F0010607F58E
:100E18008037019602F0030C019EBE684FEA8C0CE5
:100E280009FA0CFEB0F1904F26EA0E0E30D01E4E95
:100E3800B0422FD006F58066B0422DD006F5806608
:100E4800B0422BD006F58066B04214BF05260426B2
:100E580006FA0CF646EA0E06BE602668EF0354BF93
:100E68009E431E4326606668AF0354BF9E431E43DD
:100E78006660A668EF0254BF9E431E43A660E668FC
:100E8800AD0254BF26EA03033343E36001325BE754
:100E98000026DDE70126DBE70226D9E70326D7E7A8
:100EA8000010024000040140000400480AB18161BA
:100EB800704781627047000002688368C16930B575
:100EC800056914682B43456924F416442B4324F020
:100ED8000C040B43234313605368C468056A23F466
:100EE8004053234353609468836924F430642B434C
:100EF80023439360424B9A4211D103F558431B6B2D
:100F080003F00303022B5FD0032B65D0B1F5004F2C
:100F180041684FEA510345D003F5E10348E0394BF6
:100F28009A4212D103F5E6331B6B03F44033B3F551
:100F3800003F49D0EAD9B3F5403F4DD0B1F5004F55
:100F48004FF001005BD1002353E02F4B9A420BD1A5
:100F580003F5E4331B6B03F44023B3F5002F33D0C0
:100F6800D4D9B3F5402FE8E7284B9A420BD103F5C3
:100F7800E2331B6B03F44013B3F5001F24D0C5D92B
:100F8800B3F5401FD9E7224B9A42D7D103F5E03396
:100F98001B6B03F44003B3F5000F15D0B6D9B3F5B6
:100FA800400FCAE703F561031FE04B0803F5004350
:100FB800B3FBF1F39BB2D360002020E04B0803F5AC
:100FC800740303F51053F3E7B1F5004F4168ECD112
:100FD8004B0803F5803308E0B1F5004F4168EDD1C7
:100FE8004B0803F1F47303F59043B3FBF1F30020CE
:100FF8009BB223F00F01C3F342030B43D36030BD10
:10100800003801400044004000480040004C0040C7
:10101800005000402DE9F041069E044617469846C8
:101028002568E86931EA00000CBF01230023BB42B0
:1010380001D0002013E0721CF3D096B92B6823F47A
:10104800D0732B60AB6823F00103AB60202384F8D6
:10105800693084F86A30002384F868300320BDE8DA
:10106800F081FFF77BFBA0EB0800B042D8D9E5E799
:1010780073B504460021C166FFF770FB2668336824
:101088001A07054616D433685B070AD56FF07E4306
:10109800009300222B464FF480012046FFF7BAFF49
:1010A800A0B92023002084F8693084F8680084F807
:1010B8006A300CE06FF07E4300930A4603464FF413
:1010C80000112046FFF7A6FF0028DCD0032002B05D
:1010D80070BD38B5044620B390F8693003F0FF02BC
:1010E8000BB980F868202568242384F869302B68B8
:1010F80023F001032B602046FFF7DEFE012810D005
:101108006B6823F490436B60AB6823F02A03AB60F1
:101118002B6843F001032B602046BDE83840FFF7F9
:10112800A7BF012038BDF7B51E4690F86930202BBF
:101138000D460446114649D1002D45D0002A43D01A
:1011480090F86830012B41D0012380F868300023E3
:10115800C366212380F86930FFF700FBA4F850101C
:101168000746A4F85210B4F8522092B262B9009619
:101178003B4640212046FFF74DFF90B9202384F8D5
:10118800693084F868000DE0B4F85230013BA4F8E7
:101198005230002200963B4680212046FFF73AFF56
:1011A80010B1032003B0F0BDA2682368B2F5805FD8
:1011B80007D122692AB935F8022BC2F308021A8529
:1011C800D1E715F8012BFAE70120EBE70220E9E760
:1011D8002DE9F3411E4690F86A30202B0D4604464F
:1011E80011465DD1002D59D0002A57D090F86830AB
:1011F800012B55D0012380F8683003684FF0FF3287
:101208001A620023C366222380F86A30FFF7A6FA21
:10121800A368A4F85810B3F5805F0746A4F85A10DD
:1012280015D123698BB940F2FF13A4F85C30B4F8E8
:101238005C80B4F85A0080B280B9202384F86A3000
:1012480084F8680002B0BDE8F081FF23EDE7002BC9
:10125800EDD12369002BF8D07F23E6E7B4F85A30A4
:10126800013BA4F85A30002200963B462021204634
:10127800FFF7D0FEB0B9A2682368B2F5805F07D146
:1012880022692AB99B8C08EA030325F8023BD0E7B8
:101298009B8C08EA030305F8013BCAE70120D1E764
:1012A8000220CFE70320CDE7002103E00B4B5B587A
:1012B800435004310A480B4B42189A42F6D30A4A63
:1012C80002E0002313600432084B9A42F9D3AFF3CB
:1012D800008000F00FF8FFF719F8FEE77414000813
:1012E800000000200000002000000020A0010020D5
:1012F800FEE7000070B50D4B0D4C00261D1BB6EB2C
:10130800A50F09D100F01AF80A4C0B4B00261D1B3B
:10131800B6EBA50F05D170BD54F8043B98470136CC
:10132800EDE754F8043B98470136F1E76C140008E0
:101338006C1400086C14000870140008F8B500BF9D
:10134800F8BC08BC9E467047F8B500BFF8BC08BC9E
:041358009E467047F6
:10135C00004D9AD77934E3AEF2BF68258BC6115C89
:10136C00A9E4337ED09D4A075B16C18C226FB8F579
:10137C001F5285C8662BFCB1EDA0773A94D90E4369
:10138C00B6FB2C61CF8255184409DE933D70A7EA59
:10139C003E73A4E9470ADD90CC81561BB5F82F6249
:1013AC0097DA0D40EEA374396528FFB21C5186CB39
:1013BC00216CBBF65815C28FD39E4904AAE7307D29
:1013CC0088C5125FF1BC6B267A37E0AD034E99D419
:1013DC007C31E6AB05489FD28EC31459F7BA6D2009
:1013EC00D5984F02ACE1367B276ABDF05E13C489F9
:1013FC00632EF9B41A5780CD91DC0B46E8A5723FE9
:10140C00CA87501DB3FE29643875A2EF410CDB96D8
:10141C00420FD8953B76A1ECB0FD2A67C984531EC8
:10142C00EBA6713C92DF0845195483CE602DFAB7B8
:10143C005D10C78A2469BEF3AFE23578D69B4C01A8
:10144C00F4B96E238DC0175A064B9CD17F32E5A898
:10145C0030313233343536373839414243444546DE
:04146C00F101000882
:04147000C9010008A6
:04000005080012B12C
:00000001FF
